{
	"DeathRegistry.sol": {
		"DeathRegistry": {
			"abi": [
				{
					"inputs": [
						{
							"internalType": "string",
							"name": "patientId",
							"type": "string"
						}
					],
					"name": "getHash",
					"outputs": [
						{
							"internalType": "string",
							"name": "",
							"type": "string"
						}
					],
					"stateMutability": "view",
					"type": "function"
				},
				{
					"inputs": [
						{
							"internalType": "string",
							"name": "patientId",
							"type": "string"
						},
						{
							"internalType": "string",
							"name": "finalHash",
							"type": "string"
						}
					],
					"name": "storeHash",
					"outputs": [],
					"stateMutability": "nonpayable",
					"type": "function"
				}
			],
			"devdoc": {
				"kind": "dev",
				"methods": {},
				"version": 1
			},
			"evm": {
				"assembly": "    /* \"DeathRegistry.sol\":60:457  contract DeathRegistry {... */\n  mstore(0x40, 0x80)\n  callvalue\n  dup1\n  iszero\n  tag_1\n  jumpi\n  revert(0x00, 0x00)\ntag_1:\n  pop\n  dataSize(sub_0)\n  dup1\n  dataOffset(sub_0)\n  0x00\n  codecopy\n  0x00\n  return\nstop\n\nsub_0: assembly {\n        /* \"DeathRegistry.sol\":60:457  contract DeathRegistry {... */\n      mstore(0x40, 0x80)\n      callvalue\n      dup1\n      iszero\n      tag_1\n      jumpi\n      revert(0x00, 0x00)\n    tag_1:\n      pop\n      jumpi(tag_2, lt(calldatasize, 0x04))\n      shr(0xe0, calldataload(0x00))\n      dup1\n      0x5b6beeb9\n      eq\n      tag_3\n      jumpi\n      dup1\n      0x6f28ee09\n      eq\n      tag_4\n      jumpi\n    tag_2:\n      revert(0x00, 0x00)\n        /* \"DeathRegistry.sol\":300:454  function getHash(string memory patientId)... */\n    tag_3:\n      tag_5\n      0x04\n      dup1\n      calldatasize\n      sub\n      dup2\n      add\n      swap1\n      tag_6\n      swap2\n      swap1\n      tag_7\n      jump\t// in\n    tag_6:\n      tag_8\n      jump\t// in\n    tag_5:\n      mload(0x40)\n      tag_9\n      swap2\n      swap1\n      tag_10\n      jump\t// in\n    tag_9:\n      mload(0x40)\n      dup1\n      swap2\n      sub\n      swap1\n      return\n        /* \"DeathRegistry.sol\":142:292  function storeHash(... */\n    tag_4:\n      tag_11\n      0x04\n      dup1\n      calldatasize\n      sub\n      dup2\n      add\n      swap1\n      tag_12\n      swap2\n      swap1\n      tag_13\n      jump\t// in\n    tag_12:\n      tag_14\n      jump\t// in\n    tag_11:\n      stop\n        /* \"DeathRegistry.sol\":300:454  function getHash(string memory patientId)... */\n    tag_8:\n        /* \"DeathRegistry.sol\":390:403  string memory */\n      0x60\n        /* \"DeathRegistry.sol\":428:435  records */\n      0x00\n        /* \"DeathRegistry.sol\":436:445  patientId */\n      dup3\n        /* \"DeathRegistry.sol\":428:446  records[patientId] */\n      mload(0x40)\n      tag_16\n      swap2\n      swap1\n      tag_17\n      jump\t// in\n    tag_16:\n      swap1\n      dup2\n      mstore\n      0x20\n      add\n      mload(0x40)\n      dup1\n      swap2\n      sub\n      swap1\n      keccak256\n        /* \"DeathRegistry.sol\":421:446  return records[patientId] */\n      dup1\n      sload\n      tag_18\n      swap1\n      tag_19\n      jump\t// in\n    tag_18:\n      dup1\n      0x1f\n      add\n      0x20\n      dup1\n      swap2\n      div\n      mul\n      0x20\n      add\n      mload(0x40)\n      swap1\n      dup2\n      add\n      0x40\n      mstore\n      dup1\n      swap3\n      swap2\n      swap1\n      dup2\n      dup2\n      mstore\n      0x20\n      add\n      dup3\n      dup1\n      sload\n      tag_20\n      swap1\n      tag_19\n      jump\t// in\n    tag_20:\n      dup1\n      iszero\n      tag_21\n      jumpi\n      dup1\n      0x1f\n      lt\n      tag_22\n      jumpi\n      0x0100\n      dup1\n      dup4\n      sload\n      div\n      mul\n      dup4\n      mstore\n      swap2\n      0x20\n      add\n      swap2\n      jump(tag_21)\n    tag_22:\n      dup3\n      add\n      swap2\n      swap1\n      0x00\n      mstore\n      keccak256(0x00, 0x20)\n      swap1\n    tag_23:\n      dup2\n      sload\n      dup2\n      mstore\n      swap1\n      0x01\n      add\n      swap1\n      0x20\n      add\n      dup1\n      dup4\n      gt\n      tag_23\n      jumpi\n      dup3\n      swap1\n      sub\n      0x1f\n      and\n      dup3\n      add\n      swap2\n    tag_21:\n      pop\n      pop\n      pop\n      pop\n      pop\n      swap1\n      pop\n        /* \"DeathRegistry.sol\":300:454  function getHash(string memory patientId)... */\n      swap2\n      swap1\n      pop\n      jump\t// out\n        /* \"DeathRegistry.sol\":142:292  function storeHash(... */\n    tag_14:\n        /* \"DeathRegistry.sol\":275:284  finalHash */\n      dup1\n        /* \"DeathRegistry.sol\":254:261  records */\n      0x00\n        /* \"DeathRegistry.sol\":262:271  patientId */\n      dup4\n        /* \"DeathRegistry.sol\":254:272  records[patientId] */\n      mload(0x40)\n      tag_25\n      swap2\n      swap1\n      tag_17\n      jump\t// in\n    tag_25:\n      swap1\n      dup2\n      mstore\n      0x20\n      add\n      mload(0x40)\n      dup1\n      swap2\n      sub\n      swap1\n      keccak256\n        /* \"DeathRegistry.sol\":254:284  records[patientId] = finalHash */\n      swap1\n      dup2\n      tag_26\n      swap2\n      swap1\n      tag_27\n      jump\t// in\n    tag_26:\n      pop\n        /* \"DeathRegistry.sol\":142:292  function storeHash(... */\n      pop\n      pop\n      jump\t// out\n        /* \"#utility.yul\":7:82   */\n    tag_28:\n        /* \"#utility.yul\":40:46   */\n      0x00\n        /* \"#utility.yul\":73:75   */\n      0x40\n        /* \"#utility.yul\":67:76   */\n      mload\n        /* \"#utility.yul\":57:76   */\n      swap1\n      pop\n        /* \"#utility.yul\":7:82   */\n      swap1\n      jump\t// out\n        /* \"#utility.yul\":88:205   */\n    tag_29:\n        /* \"#utility.yul\":197:198   */\n      0x00\n        /* \"#utility.yul\":194:195   */\n      0x00\n        /* \"#utility.yul\":187:199   */\n      revert\n        /* \"#utility.yul\":211:328   */\n    tag_30:\n        /* \"#utility.yul\":320:321   */\n      0x00\n        /* \"#utility.yul\":317:318   */\n      0x00\n        /* \"#utility.yul\":310:322   */\n      revert\n        /* \"#utility.yul\":334:451   */\n    tag_31:\n        /* \"#utility.yul\":443:444   */\n      0x00\n        /* \"#utility.yul\":440:441   */\n      0x00\n        /* \"#utility.yul\":433:445   */\n      revert\n        /* \"#utility.yul\":457:574   */\n    tag_32:\n        /* \"#utility.yul\":566:567   */\n      0x00\n        /* \"#utility.yul\":563:564   */\n      0x00\n        /* \"#utility.yul\":556:568   */\n      revert\n        /* \"#utility.yul\":580:682   */\n    tag_33:\n        /* \"#utility.yul\":621:627   */\n      0x00\n        /* \"#utility.yul\":672:674   */\n      0x1f\n        /* \"#utility.yul\":668:675   */\n      not\n        /* \"#utility.yul\":663:665   */\n      0x1f\n        /* \"#utility.yul\":656:661   */\n      dup4\n        /* \"#utility.yul\":652:666   */\n      add\n        /* \"#utility.yul\":648:676   */\n      and\n        /* \"#utility.yul\":638:676   */\n      swap1\n      pop\n        /* \"#utility.yul\":580:682   */\n      swap2\n      swap1\n      pop\n      jump\t// out\n        /* \"#utility.yul\":688:868   */\n    tag_34:\n        /* \"#utility.yul\":736:813   */\n      0x4e487b7100000000000000000000000000000000000000000000000000000000\n        /* \"#utility.yul\":733:734   */\n      0x00\n        /* \"#utility.yul\":726:814   */\n      mstore\n        /* \"#utility.yul\":833:837   */\n      0x41\n        /* \"#utility.yul\":830:831   */\n      0x04\n        /* \"#utility.yul\":823:838   */\n      mstore\n        /* \"#utility.yul\":857:861   */\n      0x24\n        /* \"#utility.yul\":854:855   */\n      0x00\n        /* \"#utility.yul\":847:862   */\n      revert\n        /* \"#utility.yul\":874:1155   */\n    tag_35:\n        /* \"#utility.yul\":957:984   */\n      tag_73\n        /* \"#utility.yul\":979:983   */\n      dup3\n        /* \"#utility.yul\":957:984   */\n      tag_33\n      jump\t// in\n    tag_73:\n        /* \"#utility.yul\":949:955   */\n      dup2\n        /* \"#utility.yul\":945:985   */\n      add\n        /* \"#utility.yul\":1087:1093   */\n      dup2\n        /* \"#utility.yul\":1075:1085   */\n      dup2\n        /* \"#utility.yul\":1072:1094   */\n      lt\n        /* \"#utility.yul\":1051:1069   */\n      0xffffffffffffffff\n        /* \"#utility.yul\":1039:1049   */\n      dup3\n        /* \"#utility.yul\":1036:1070   */\n      gt\n        /* \"#utility.yul\":1033:1095   */\n      or\n        /* \"#utility.yul\":1030:1118   */\n      iszero\n      tag_74\n      jumpi\n        /* \"#utility.yul\":1098:1116   */\n      tag_75\n      tag_34\n      jump\t// in\n    tag_75:\n        /* \"#utility.yul\":1030:1118   */\n    tag_74:\n        /* \"#utility.yul\":1138:1148   */\n      dup1\n        /* \"#utility.yul\":1134:1136   */\n      0x40\n        /* \"#utility.yul\":1127:1149   */\n      mstore\n        /* \"#utility.yul\":917:1155   */\n      pop\n        /* \"#utility.yul\":874:1155   */\n      pop\n      pop\n      jump\t// out\n        /* \"#utility.yul\":1161:1290   */\n    tag_36:\n        /* \"#utility.yul\":1195:1201   */\n      0x00\n        /* \"#utility.yul\":1222:1242   */\n      tag_77\n      tag_28\n      jump\t// in\n    tag_77:\n        /* \"#utility.yul\":1212:1242   */\n      swap1\n      pop\n        /* \"#utility.yul\":1251:1284   */\n      tag_78\n        /* \"#utility.yul\":1279:1283   */\n      dup3\n        /* \"#utility.yul\":1271:1277   */\n      dup3\n        /* \"#utility.yul\":1251:1284   */\n      tag_35\n      jump\t// in\n    tag_78:\n        /* \"#utility.yul\":1161:1290   */\n      swap2\n      swap1\n      pop\n      jump\t// out\n        /* \"#utility.yul\":1296:1604   */\n    tag_37:\n        /* \"#utility.yul\":1358:1362   */\n      0x00\n        /* \"#utility.yul\":1448:1466   */\n      0xffffffffffffffff\n        /* \"#utility.yul\":1440:1446   */\n      dup3\n        /* \"#utility.yul\":1437:1467   */\n      gt\n        /* \"#utility.yul\":1434:1490   */\n      iszero\n      tag_80\n      jumpi\n        /* \"#utility.yul\":1470:1488   */\n      tag_81\n      tag_34\n      jump\t// in\n    tag_81:\n        /* \"#utility.yul\":1434:1490   */\n    tag_80:\n        /* \"#utility.yul\":1508:1537   */\n      tag_82\n        /* \"#utility.yul\":1530:1536   */\n      dup3\n        /* \"#utility.yul\":1508:1537   */\n      tag_33\n      jump\t// in\n    tag_82:\n        /* \"#utility.yul\":1500:1537   */\n      swap1\n      pop\n        /* \"#utility.yul\":1592:1596   */\n      0x20\n        /* \"#utility.yul\":1586:1590   */\n      dup2\n        /* \"#utility.yul\":1582:1597   */\n      add\n        /* \"#utility.yul\":1574:1597   */\n      swap1\n      pop\n        /* \"#utility.yul\":1296:1604   */\n      swap2\n      swap1\n      pop\n      jump\t// out\n        /* \"#utility.yul\":1610:1758   */\n    tag_38:\n        /* \"#utility.yul\":1708:1714   */\n      dup3\n        /* \"#utility.yul\":1703:1706   */\n      dup2\n        /* \"#utility.yul\":1698:1701   */\n      dup4\n        /* \"#utility.yul\":1685:1715   */\n      calldatacopy\n        /* \"#utility.yul\":1749:1750   */\n      0x00\n        /* \"#utility.yul\":1740:1746   */\n      dup4\n        /* \"#utility.yul\":1735:1738   */\n      dup4\n        /* \"#utility.yul\":1731:1747   */\n      add\n        /* \"#utility.yul\":1724:1751   */\n      mstore\n        /* \"#utility.yul\":1610:1758   */\n      pop\n      pop\n      pop\n      jump\t// out\n        /* \"#utility.yul\":1764:2189   */\n    tag_39:\n        /* \"#utility.yul\":1842:1847   */\n      0x00\n        /* \"#utility.yul\":1867:1933   */\n      tag_85\n        /* \"#utility.yul\":1883:1932   */\n      tag_86\n        /* \"#utility.yul\":1925:1931   */\n      dup5\n        /* \"#utility.yul\":1883:1932   */\n      tag_37\n      jump\t// in\n    tag_86:\n        /* \"#utility.yul\":1867:1933   */\n      tag_36\n      jump\t// in\n    tag_85:\n        /* \"#utility.yul\":1858:1933   */\n      swap1\n      pop\n        /* \"#utility.yul\":1956:1962   */\n      dup3\n        /* \"#utility.yul\":1949:1954   */\n      dup2\n        /* \"#utility.yul\":1942:1963   */\n      mstore\n        /* \"#utility.yul\":1994:1998   */\n      0x20\n        /* \"#utility.yul\":1987:1992   */\n      dup2\n        /* \"#utility.yul\":1983:1999   */\n      add\n        /* \"#utility.yul\":2032:2035   */\n      dup5\n        /* \"#utility.yul\":2023:2029   */\n      dup5\n        /* \"#utility.yul\":2018:2021   */\n      dup5\n        /* \"#utility.yul\":2014:2030   */\n      add\n        /* \"#utility.yul\":2011:2036   */\n      gt\n        /* \"#utility.yul\":2008:2120   */\n      iszero\n      tag_87\n      jumpi\n        /* \"#utility.yul\":2039:2118   */\n      tag_88\n      tag_32\n      jump\t// in\n    tag_88:\n        /* \"#utility.yul\":2008:2120   */\n    tag_87:\n        /* \"#utility.yul\":2129:2183   */\n      tag_89\n        /* \"#utility.yul\":2176:2182   */\n      dup5\n        /* \"#utility.yul\":2171:2174   */\n      dup3\n        /* \"#utility.yul\":2166:2169   */\n      dup6\n        /* \"#utility.yul\":2129:2183   */\n      tag_38\n      jump\t// in\n    tag_89:\n        /* \"#utility.yul\":1848:2189   */\n      pop\n        /* \"#utility.yul\":1764:2189   */\n      swap4\n      swap3\n      pop\n      pop\n      pop\n      jump\t// out\n        /* \"#utility.yul\":2209:2549   */\n    tag_40:\n        /* \"#utility.yul\":2265:2270   */\n      0x00\n        /* \"#utility.yul\":2314:2317   */\n      dup3\n        /* \"#utility.yul\":2307:2311   */\n      0x1f\n        /* \"#utility.yul\":2299:2305   */\n      dup4\n        /* \"#utility.yul\":2295:2312   */\n      add\n        /* \"#utility.yul\":2291:2318   */\n      slt\n        /* \"#utility.yul\":2281:2403   */\n      tag_91\n      jumpi\n        /* \"#utility.yul\":2322:2401   */\n      tag_92\n      tag_31\n      jump\t// in\n    tag_92:\n        /* \"#utility.yul\":2281:2403   */\n    tag_91:\n        /* \"#utility.yul\":2439:2445   */\n      dup2\n        /* \"#utility.yul\":2426:2446   */\n      calldataload\n        /* \"#utility.yul\":2464:2543   */\n      tag_93\n        /* \"#utility.yul\":2539:2542   */\n      dup5\n        /* \"#utility.yul\":2531:2537   */\n      dup3\n        /* \"#utility.yul\":2524:2528   */\n      0x20\n        /* \"#utility.yul\":2516:2522   */\n      dup7\n        /* \"#utility.yul\":2512:2529   */\n      add\n        /* \"#utility.yul\":2464:2543   */\n      tag_39\n      jump\t// in\n    tag_93:\n        /* \"#utility.yul\":2455:2543   */\n      swap2\n      pop\n        /* \"#utility.yul\":2271:2549   */\n      pop\n        /* \"#utility.yul\":2209:2549   */\n      swap3\n      swap2\n      pop\n      pop\n      jump\t// out\n        /* \"#utility.yul\":2555:3064   */\n    tag_7:\n        /* \"#utility.yul\":2624:2630   */\n      0x00\n        /* \"#utility.yul\":2673:2675   */\n      0x20\n        /* \"#utility.yul\":2661:2670   */\n      dup3\n        /* \"#utility.yul\":2652:2659   */\n      dup5\n        /* \"#utility.yul\":2648:2671   */\n      sub\n        /* \"#utility.yul\":2644:2676   */\n      slt\n        /* \"#utility.yul\":2641:2760   */\n      iszero\n      tag_95\n      jumpi\n        /* \"#utility.yul\":2679:2758   */\n      tag_96\n      tag_29\n      jump\t// in\n    tag_96:\n        /* \"#utility.yul\":2641:2760   */\n    tag_95:\n        /* \"#utility.yul\":2827:2828   */\n      0x00\n        /* \"#utility.yul\":2816:2825   */\n      dup3\n        /* \"#utility.yul\":2812:2829   */\n      add\n        /* \"#utility.yul\":2799:2830   */\n      calldataload\n        /* \"#utility.yul\":2857:2875   */\n      0xffffffffffffffff\n        /* \"#utility.yul\":2849:2855   */\n      dup2\n        /* \"#utility.yul\":2846:2876   */\n      gt\n        /* \"#utility.yul\":2843:2960   */\n      iszero\n      tag_97\n      jumpi\n        /* \"#utility.yul\":2879:2958   */\n      tag_98\n      tag_30\n      jump\t// in\n    tag_98:\n        /* \"#utility.yul\":2843:2960   */\n    tag_97:\n        /* \"#utility.yul\":2984:3047   */\n      tag_99\n        /* \"#utility.yul\":3039:3046   */\n      dup5\n        /* \"#utility.yul\":3030:3036   */\n      dup3\n        /* \"#utility.yul\":3019:3028   */\n      dup6\n        /* \"#utility.yul\":3015:3037   */\n      add\n        /* \"#utility.yul\":2984:3047   */\n      tag_40\n      jump\t// in\n    tag_99:\n        /* \"#utility.yul\":2974:3047   */\n      swap2\n      pop\n        /* \"#utility.yul\":2770:3057   */\n      pop\n        /* \"#utility.yul\":2555:3064   */\n      swap3\n      swap2\n      pop\n      pop\n      jump\t// out\n        /* \"#utility.yul\":3070:3169   */\n    tag_41:\n        /* \"#utility.yul\":3122:3128   */\n      0x00\n        /* \"#utility.yul\":3156:3161   */\n      dup2\n        /* \"#utility.yul\":3150:3162   */\n      mload\n        /* \"#utility.yul\":3140:3162   */\n      swap1\n      pop\n        /* \"#utility.yul\":3070:3169   */\n      swap2\n      swap1\n      pop\n      jump\t// out\n        /* \"#utility.yul\":3175:3344   */\n    tag_42:\n        /* \"#utility.yul\":3259:3270   */\n      0x00\n        /* \"#utility.yul\":3293:3299   */\n      dup3\n        /* \"#utility.yul\":3288:3291   */\n      dup3\n        /* \"#utility.yul\":3281:3300   */\n      mstore\n        /* \"#utility.yul\":3333:3337   */\n      0x20\n        /* \"#utility.yul\":3328:3331   */\n      dup3\n        /* \"#utility.yul\":3324:3338   */\n      add\n        /* \"#utility.yul\":3309:3338   */\n      swap1\n      pop\n        /* \"#utility.yul\":3175:3344   */\n      swap3\n      swap2\n      pop\n      pop\n      jump\t// out\n        /* \"#utility.yul\":3350:3489   */\n    tag_43:\n        /* \"#utility.yul\":3439:3445   */\n      dup3\n        /* \"#utility.yul\":3434:3437   */\n      dup2\n        /* \"#utility.yul\":3429:3432   */\n      dup4\n        /* \"#utility.yul\":3423:3446   */\n      mcopy\n        /* \"#utility.yul\":3480:3481   */\n      0x00\n        /* \"#utility.yul\":3471:3477   */\n      dup4\n        /* \"#utility.yul\":3466:3469   */\n      dup4\n        /* \"#utility.yul\":3462:3478   */\n      add\n        /* \"#utility.yul\":3455:3482   */\n      mstore\n        /* \"#utility.yul\":3350:3489   */\n      pop\n      pop\n      pop\n      jump\t// out\n        /* \"#utility.yul\":3495:3872   */\n    tag_44:\n        /* \"#utility.yul\":3583:3586   */\n      0x00\n        /* \"#utility.yul\":3611:3650   */\n      tag_104\n        /* \"#utility.yul\":3644:3649   */\n      dup3\n        /* \"#utility.yul\":3611:3650   */\n      tag_41\n      jump\t// in\n    tag_104:\n        /* \"#utility.yul\":3666:3737   */\n      tag_105\n        /* \"#utility.yul\":3730:3736   */\n      dup2\n        /* \"#utility.yul\":3725:3728   */\n      dup6\n        /* \"#utility.yul\":3666:3737   */\n      tag_42\n      jump\t// in\n    tag_105:\n        /* \"#utility.yul\":3659:3737   */\n      swap4\n      pop\n        /* \"#utility.yul\":3746:3811   */\n      tag_106\n        /* \"#utility.yul\":3804:3810   */\n      dup2\n        /* \"#utility.yul\":3799:3802   */\n      dup6\n        /* \"#utility.yul\":3792:3796   */\n      0x20\n        /* \"#utility.yul\":3785:3790   */\n      dup7\n        /* \"#utility.yul\":3781:3797   */\n      add\n        /* \"#utility.yul\":3746:3811   */\n      tag_43\n      jump\t// in\n    tag_106:\n        /* \"#utility.yul\":3836:3865   */\n      tag_107\n        /* \"#utility.yul\":3858:3864   */\n      dup2\n        /* \"#utility.yul\":3836:3865   */\n      tag_33\n      jump\t// in\n    tag_107:\n        /* \"#utility.yul\":3831:3834   */\n      dup5\n        /* \"#utility.yul\":3827:3866   */\n      add\n        /* \"#utility.yul\":3820:3866   */\n      swap2\n      pop\n        /* \"#utility.yul\":3587:3872   */\n      pop\n        /* \"#utility.yul\":3495:3872   */\n      swap3\n      swap2\n      pop\n      pop\n      jump\t// out\n        /* \"#utility.yul\":3878:4191   */\n    tag_10:\n        /* \"#utility.yul\":3991:3995   */\n      0x00\n        /* \"#utility.yul\":4029:4031   */\n      0x20\n        /* \"#utility.yul\":4018:4027   */\n      dup3\n        /* \"#utility.yul\":4014:4032   */\n      add\n        /* \"#utility.yul\":4006:4032   */\n      swap1\n      pop\n        /* \"#utility.yul\":4078:4087   */\n      dup2\n        /* \"#utility.yul\":4072:4076   */\n      dup2\n        /* \"#utility.yul\":4068:4088   */\n      sub\n        /* \"#utility.yul\":4064:4065   */\n      0x00\n        /* \"#utility.yul\":4053:4062   */\n      dup4\n        /* \"#utility.yul\":4049:4066   */\n      add\n        /* \"#utility.yul\":4042:4089   */\n      mstore\n        /* \"#utility.yul\":4106:4184   */\n      tag_109\n        /* \"#utility.yul\":4179:4183   */\n      dup2\n        /* \"#utility.yul\":4170:4176   */\n      dup5\n        /* \"#utility.yul\":4106:4184   */\n      tag_44\n      jump\t// in\n    tag_109:\n        /* \"#utility.yul\":4098:4184   */\n      swap1\n      pop\n        /* \"#utility.yul\":3878:4191   */\n      swap3\n      swap2\n      pop\n      pop\n      jump\t// out\n        /* \"#utility.yul\":4197:5031   */\n    tag_13:\n        /* \"#utility.yul\":4285:4291   */\n      0x00\n        /* \"#utility.yul\":4293:4299   */\n      0x00\n        /* \"#utility.yul\":4342:4344   */\n      0x40\n        /* \"#utility.yul\":4330:4339   */\n      dup4\n        /* \"#utility.yul\":4321:4328   */\n      dup6\n        /* \"#utility.yul\":4317:4340   */\n      sub\n        /* \"#utility.yul\":4313:4345   */\n      slt\n        /* \"#utility.yul\":4310:4429   */\n      iszero\n      tag_111\n      jumpi\n        /* \"#utility.yul\":4348:4427   */\n      tag_112\n      tag_29\n      jump\t// in\n    tag_112:\n        /* \"#utility.yul\":4310:4429   */\n    tag_111:\n        /* \"#utility.yul\":4496:4497   */\n      0x00\n        /* \"#utility.yul\":4485:4494   */\n      dup4\n        /* \"#utility.yul\":4481:4498   */\n      add\n        /* \"#utility.yul\":4468:4499   */\n      calldataload\n        /* \"#utility.yul\":4526:4544   */\n      0xffffffffffffffff\n        /* \"#utility.yul\":4518:4524   */\n      dup2\n        /* \"#utility.yul\":4515:4545   */\n      gt\n        /* \"#utility.yul\":4512:4629   */\n      iszero\n      tag_113\n      jumpi\n        /* \"#utility.yul\":4548:4627   */\n      tag_114\n      tag_30\n      jump\t// in\n    tag_114:\n        /* \"#utility.yul\":4512:4629   */\n    tag_113:\n        /* \"#utility.yul\":4653:4716   */\n      tag_115\n        /* \"#utility.yul\":4708:4715   */\n      dup6\n        /* \"#utility.yul\":4699:4705   */\n      dup3\n        /* \"#utility.yul\":4688:4697   */\n      dup7\n        /* \"#utility.yul\":4684:4706   */\n      add\n        /* \"#utility.yul\":4653:4716   */\n      tag_40\n      jump\t// in\n    tag_115:\n        /* \"#utility.yul\":4643:4716   */\n      swap3\n      pop\n        /* \"#utility.yul\":4439:4726   */\n      pop\n        /* \"#utility.yul\":4793:4795   */\n      0x20\n        /* \"#utility.yul\":4782:4791   */\n      dup4\n        /* \"#utility.yul\":4778:4796   */\n      add\n        /* \"#utility.yul\":4765:4797   */\n      calldataload\n        /* \"#utility.yul\":4824:4842   */\n      0xffffffffffffffff\n        /* \"#utility.yul\":4816:4822   */\n      dup2\n        /* \"#utility.yul\":4813:4843   */\n      gt\n        /* \"#utility.yul\":4810:4927   */\n      iszero\n      tag_116\n      jumpi\n        /* \"#utility.yul\":4846:4925   */\n      tag_117\n      tag_30\n      jump\t// in\n    tag_117:\n        /* \"#utility.yul\":4810:4927   */\n    tag_116:\n        /* \"#utility.yul\":4951:5014   */\n      tag_118\n        /* \"#utility.yul\":5006:5013   */\n      dup6\n        /* \"#utility.yul\":4997:5003   */\n      dup3\n        /* \"#utility.yul\":4986:4995   */\n      dup7\n        /* \"#utility.yul\":4982:5004   */\n      add\n        /* \"#utility.yul\":4951:5014   */\n      tag_40\n      jump\t// in\n    tag_118:\n        /* \"#utility.yul\":4941:5014   */\n      swap2\n      pop\n        /* \"#utility.yul\":4736:5024   */\n      pop\n        /* \"#utility.yul\":4197:5031   */\n      swap3\n      pop\n      swap3\n      swap1\n      pop\n      jump\t// out\n        /* \"#utility.yul\":5037:5185   */\n    tag_45:\n        /* \"#utility.yul\":5139:5150   */\n      0x00\n        /* \"#utility.yul\":5176:5179   */\n      dup2\n        /* \"#utility.yul\":5161:5179   */\n      swap1\n      pop\n        /* \"#utility.yul\":5037:5185   */\n      swap3\n      swap2\n      pop\n      pop\n      jump\t// out\n        /* \"#utility.yul\":5191:5581   */\n    tag_46:\n        /* \"#utility.yul\":5297:5300   */\n      0x00\n        /* \"#utility.yul\":5325:5364   */\n      tag_121\n        /* \"#utility.yul\":5358:5363   */\n      dup3\n        /* \"#utility.yul\":5325:5364   */\n      tag_41\n      jump\t// in\n    tag_121:\n        /* \"#utility.yul\":5380:5469   */\n      tag_122\n        /* \"#utility.yul\":5462:5468   */\n      dup2\n        /* \"#utility.yul\":5457:5460   */\n      dup6\n        /* \"#utility.yul\":5380:5469   */\n      tag_45\n      jump\t// in\n    tag_122:\n        /* \"#utility.yul\":5373:5469   */\n      swap4\n      pop\n        /* \"#utility.yul\":5478:5543   */\n      tag_123\n        /* \"#utility.yul\":5536:5542   */\n      dup2\n        /* \"#utility.yul\":5531:5534   */\n      dup6\n        /* \"#utility.yul\":5524:5528   */\n      0x20\n        /* \"#utility.yul\":5517:5522   */\n      dup7\n        /* \"#utility.yul\":5513:5529   */\n      add\n        /* \"#utility.yul\":5478:5543   */\n      tag_43\n      jump\t// in\n    tag_123:\n        /* \"#utility.yul\":5568:5574   */\n      dup1\n        /* \"#utility.yul\":5563:5566   */\n      dup5\n        /* \"#utility.yul\":5559:5575   */\n      add\n        /* \"#utility.yul\":5552:5575   */\n      swap2\n      pop\n        /* \"#utility.yul\":5301:5581   */\n      pop\n        /* \"#utility.yul\":5191:5581   */\n      swap3\n      swap2\n      pop\n      pop\n      jump\t// out\n        /* \"#utility.yul\":5587:5862   */\n    tag_17:\n        /* \"#utility.yul\":5719:5722   */\n      0x00\n        /* \"#utility.yul\":5741:5836   */\n      tag_125\n        /* \"#utility.yul\":5832:5835   */\n      dup3\n        /* \"#utility.yul\":5823:5829   */\n      dup5\n        /* \"#utility.yul\":5741:5836   */\n      tag_46\n      jump\t// in\n    tag_125:\n        /* \"#utility.yul\":5734:5836   */\n      swap2\n      pop\n        /* \"#utility.yul\":5853:5856   */\n      dup2\n        /* \"#utility.yul\":5846:5856   */\n      swap1\n      pop\n        /* \"#utility.yul\":5587:5862   */\n      swap3\n      swap2\n      pop\n      pop\n      jump\t// out\n        /* \"#utility.yul\":5868:6048   */\n    tag_47:\n        /* \"#utility.yul\":5916:5993   */\n      0x4e487b7100000000000000000000000000000000000000000000000000000000\n        /* \"#utility.yul\":5913:5914   */\n      0x00\n        /* \"#utility.yul\":5906:5994   */\n      mstore\n        /* \"#utility.yul\":6013:6017   */\n      0x22\n        /* \"#utility.yul\":6010:6011   */\n      0x04\n        /* \"#utility.yul\":6003:6018   */\n      mstore\n        /* \"#utility.yul\":6037:6041   */\n      0x24\n        /* \"#utility.yul\":6034:6035   */\n      0x00\n        /* \"#utility.yul\":6027:6042   */\n      revert\n        /* \"#utility.yul\":6054:6374   */\n    tag_19:\n        /* \"#utility.yul\":6098:6104   */\n      0x00\n        /* \"#utility.yul\":6135:6136   */\n      0x02\n        /* \"#utility.yul\":6129:6133   */\n      dup3\n        /* \"#utility.yul\":6125:6137   */\n      div\n        /* \"#utility.yul\":6115:6137   */\n      swap1\n      pop\n        /* \"#utility.yul\":6182:6183   */\n      0x01\n        /* \"#utility.yul\":6176:6180   */\n      dup3\n        /* \"#utility.yul\":6172:6184   */\n      and\n        /* \"#utility.yul\":6203:6221   */\n      dup1\n        /* \"#utility.yul\":6193:6274   */\n      tag_128\n      jumpi\n        /* \"#utility.yul\":6259:6263   */\n      0x7f\n        /* \"#utility.yul\":6251:6257   */\n      dup3\n        /* \"#utility.yul\":6247:6264   */\n      and\n        /* \"#utility.yul\":6237:6264   */\n      swap2\n      pop\n        /* \"#utility.yul\":6193:6274   */\n    tag_128:\n        /* \"#utility.yul\":6321:6323   */\n      0x20\n        /* \"#utility.yul\":6313:6319   */\n      dup3\n        /* \"#utility.yul\":6310:6324   */\n      lt\n        /* \"#utility.yul\":6290:6308   */\n      dup2\n        /* \"#utility.yul\":6287:6325   */\n      sub\n        /* \"#utility.yul\":6284:6368   */\n      tag_129\n      jumpi\n        /* \"#utility.yul\":6340:6358   */\n      tag_130\n      tag_47\n      jump\t// in\n    tag_130:\n        /* \"#utility.yul\":6284:6368   */\n    tag_129:\n        /* \"#utility.yul\":6105:6374   */\n      pop\n        /* \"#utility.yul\":6054:6374   */\n      swap2\n      swap1\n      pop\n      jump\t// out\n        /* \"#utility.yul\":6380:6521   */\n    tag_48:\n        /* \"#utility.yul\":6429:6433   */\n      0x00\n        /* \"#utility.yul\":6452:6455   */\n      dup2\n        /* \"#utility.yul\":6444:6455   */\n      swap1\n      pop\n        /* \"#utility.yul\":6475:6478   */\n      dup2\n        /* \"#utility.yul\":6472:6473   */\n      0x00\n        /* \"#utility.yul\":6465:6479   */\n      mstore\n        /* \"#utility.yul\":6509:6513   */\n      0x20\n        /* \"#utility.yul\":6506:6507   */\n      0x00\n        /* \"#utility.yul\":6496:6514   */\n      keccak256\n        /* \"#utility.yul\":6488:6514   */\n      swap1\n      pop\n        /* \"#utility.yul\":6380:6521   */\n      swap2\n      swap1\n      pop\n      jump\t// out\n        /* \"#utility.yul\":6527:6620   */\n    tag_49:\n        /* \"#utility.yul\":6564:6570   */\n      0x00\n        /* \"#utility.yul\":6611:6613   */\n      0x20\n        /* \"#utility.yul\":6606:6608   */\n      0x1f\n        /* \"#utility.yul\":6599:6604   */\n      dup4\n        /* \"#utility.yul\":6595:6609   */\n      add\n        /* \"#utility.yul\":6591:6614   */\n      div\n        /* \"#utility.yul\":6581:6614   */\n      swap1\n      pop\n        /* \"#utility.yul\":6527:6620   */\n      swap2\n      swap1\n      pop\n      jump\t// out\n        /* \"#utility.yul\":6626:6733   */\n    tag_50:\n        /* \"#utility.yul\":6670:6678   */\n      0x00\n        /* \"#utility.yul\":6720:6725   */\n      dup3\n        /* \"#utility.yul\":6714:6718   */\n      dup3\n        /* \"#utility.yul\":6710:6726   */\n      shl\n        /* \"#utility.yul\":6689:6726   */\n      swap1\n      pop\n        /* \"#utility.yul\":6626:6733   */\n      swap3\n      swap2\n      pop\n      pop\n      jump\t// out\n        /* \"#utility.yul\":6739:7132   */\n    tag_51:\n        /* \"#utility.yul\":6808:6814   */\n      0x00\n        /* \"#utility.yul\":6858:6859   */\n      0x08\n        /* \"#utility.yul\":6846:6856   */\n      dup4\n        /* \"#utility.yul\":6842:6860   */\n      mul\n        /* \"#utility.yul\":6881:6978   */\n      tag_135\n        /* \"#utility.yul\":6911:6977   */\n      0xffffffffffffffffffffffffffffffffffffffffffffffffffffffffffffffff\n        /* \"#utility.yul\":6900:6909   */\n      dup3\n        /* \"#utility.yul\":6881:6978   */\n      tag_50\n      jump\t// in\n    tag_135:\n        /* \"#utility.yul\":6999:7038   */\n      tag_136\n        /* \"#utility.yul\":7029:7037   */\n      dup7\n        /* \"#utility.yul\":7018:7027   */\n      dup4\n        /* \"#utility.yul\":6999:7038   */\n      tag_50\n      jump\t// in\n    tag_136:\n        /* \"#utility.yul\":6987:7038   */\n      swap6\n      pop\n        /* \"#utility.yul\":7071:7075   */\n      dup1\n        /* \"#utility.yul\":7067:7076   */\n      not\n        /* \"#utility.yul\":7060:7065   */\n      dup5\n        /* \"#utility.yul\":7056:7077   */\n      and\n        /* \"#utility.yul\":7047:7077   */\n      swap4\n      pop\n        /* \"#utility.yul\":7120:7124   */\n      dup1\n        /* \"#utility.yul\":7110:7118   */\n      dup7\n        /* \"#utility.yul\":7106:7125   */\n      and\n        /* \"#utility.yul\":7099:7104   */\n      dup5\n        /* \"#utility.yul\":7096:7126   */\n      or\n        /* \"#utility.yul\":7086:7126   */\n      swap3\n      pop\n        /* \"#utility.yul\":6815:7132   */\n      pop\n      pop\n        /* \"#utility.yul\":6739:7132   */\n      swap4\n      swap3\n      pop\n      pop\n      pop\n      jump\t// out\n        /* \"#utility.yul\":7138:7215   */\n    tag_52:\n        /* \"#utility.yul\":7175:7182   */\n      0x00\n        /* \"#utility.yul\":7204:7209   */\n      dup2\n        /* \"#utility.yul\":7193:7209   */\n      swap1\n      pop\n        /* \"#utility.yul\":7138:7215   */\n      swap2\n      swap1\n      pop\n      jump\t// out\n        /* \"#utility.yul\":7221:7281   */\n    tag_53:\n        /* \"#utility.yul\":7249:7252   */\n      0x00\n        /* \"#utility.yul\":7270:7275   */\n      dup2\n        /* \"#utility.yul\":7263:7275   */\n      swap1\n      pop\n        /* \"#utility.yul\":7221:7281   */\n      swap2\n      swap1\n      pop\n      jump\t// out\n        /* \"#utility.yul\":7287:7429   */\n    tag_54:\n        /* \"#utility.yul\":7337:7346   */\n      0x00\n        /* \"#utility.yul\":7370:7423   */\n      tag_140\n        /* \"#utility.yul\":7388:7422   */\n      tag_141\n        /* \"#utility.yul\":7397:7421   */\n      tag_142\n        /* \"#utility.yul\":7415:7420   */\n      dup5\n        /* \"#utility.yul\":7397:7421   */\n      tag_52\n      jump\t// in\n    tag_142:\n        /* \"#utility.yul\":7388:7422   */\n      tag_53\n      jump\t// in\n    tag_141:\n        /* \"#utility.yul\":7370:7423   */\n      tag_52\n      jump\t// in\n    tag_140:\n        /* \"#utility.yul\":7357:7423   */\n      swap1\n      pop\n        /* \"#utility.yul\":7287:7429   */\n      swap2\n      swap1\n      pop\n      jump\t// out\n        /* \"#utility.yul\":7435:7510   */\n    tag_55:\n        /* \"#utility.yul\":7478:7481   */\n      0x00\n        /* \"#utility.yul\":7499:7504   */\n      dup2\n        /* \"#utility.yul\":7492:7504   */\n      swap1\n      pop\n        /* \"#utility.yul\":7435:7510   */\n      swap2\n      swap1\n      pop\n      jump\t// out\n        /* \"#utility.yul\":7516:7785   */\n    tag_56:\n        /* \"#utility.yul\":7626:7665   */\n      tag_145\n        /* \"#utility.yul\":7657:7664   */\n      dup4\n        /* \"#utility.yul\":7626:7665   */\n      tag_54\n      jump\t// in\n    tag_145:\n        /* \"#utility.yul\":7687:7778   */\n      tag_146\n        /* \"#utility.yul\":7736:7777   */\n      tag_147\n        /* \"#utility.yul\":7760:7776   */\n      dup3\n        /* \"#utility.yul\":7736:7777   */\n      tag_55\n      jump\t// in\n    tag_147:\n        /* \"#utility.yul\":7728:7734   */\n      dup5\n        /* \"#utility.yul\":7721:7725   */\n      dup5\n        /* \"#utility.yul\":7715:7726   */\n      sload\n        /* \"#utility.yul\":7687:7778   */\n      tag_51\n      jump\t// in\n    tag_146:\n        /* \"#utility.yul\":7681:7685   */\n      dup3\n        /* \"#utility.yul\":7674:7779   */\n      sstore\n        /* \"#utility.yul\":7592:7785   */\n      pop\n        /* \"#utility.yul\":7516:7785   */\n      pop\n      pop\n      pop\n      jump\t// out\n        /* \"#utility.yul\":7791:7864   */\n    tag_57:\n        /* \"#utility.yul\":7836:7839   */\n      0x00\n        /* \"#utility.yul\":7857:7858   */\n      0x00\n        /* \"#utility.yul\":7850:7858   */\n      swap1\n      pop\n        /* \"#utility.yul\":7791:7864   */\n      swap1\n      jump\t// out\n        /* \"#utility.yul\":7870:8059   */\n    tag_58:\n        /* \"#utility.yul\":7947:7979   */\n      tag_150\n      tag_57\n      jump\t// in\n    tag_150:\n        /* \"#utility.yul\":7988:8053   */\n      tag_151\n        /* \"#utility.yul\":8046:8052   */\n      dup2\n        /* \"#utility.yul\":8038:8044   */\n      dup5\n        /* \"#utility.yul\":8032:8036   */\n      dup5\n        /* \"#utility.yul\":7988:8053   */\n      tag_56\n      jump\t// in\n    tag_151:\n        /* \"#utility.yul\":7923:8059   */\n      pop\n        /* \"#utility.yul\":7870:8059   */\n      pop\n      pop\n      jump\t// out\n        /* \"#utility.yul\":8065:8251   */\n    tag_59:\n        /* \"#utility.yul\":8125:8245   */\n    tag_153:\n        /* \"#utility.yul\":8142:8145   */\n      dup2\n        /* \"#utility.yul\":8135:8140   */\n      dup2\n        /* \"#utility.yul\":8132:8146   */\n      lt\n        /* \"#utility.yul\":8125:8245   */\n      iszero\n      tag_155\n      jumpi\n        /* \"#utility.yul\":8196:8235   */\n      tag_156\n        /* \"#utility.yul\":8233:8234   */\n      0x00\n        /* \"#utility.yul\":8226:8231   */\n      dup3\n        /* \"#utility.yul\":8196:8235   */\n      tag_58\n      jump\t// in\n    tag_156:\n        /* \"#utility.yul\":8169:8170   */\n      0x01\n        /* \"#utility.yul\":8162:8167   */\n      dup2\n        /* \"#utility.yul\":8158:8171   */\n      add\n        /* \"#utility.yul\":8149:8171   */\n      swap1\n      pop\n        /* \"#utility.yul\":8125:8245   */\n      jump(tag_153)\n    tag_155:\n        /* \"#utility.yul\":8065:8251   */\n      pop\n      pop\n      jump\t// out\n        /* \"#utility.yul\":8257:8800   */\n    tag_60:\n        /* \"#utility.yul\":8358:8360   */\n      0x1f\n        /* \"#utility.yul\":8353:8356   */\n      dup3\n        /* \"#utility.yul\":8350:8361   */\n      gt\n        /* \"#utility.yul\":8347:8793   */\n      iszero\n      tag_158\n      jumpi\n        /* \"#utility.yul\":8392:8430   */\n      tag_159\n        /* \"#utility.yul\":8424:8429   */\n      dup2\n        /* \"#utility.yul\":8392:8430   */\n      tag_48\n      jump\t// in\n    tag_159:\n        /* \"#utility.yul\":8476:8505   */\n      tag_160\n        /* \"#utility.yul\":8494:8504   */\n      dup5\n        /* \"#utility.yul\":8476:8505   */\n      tag_49\n      jump\t// in\n    tag_160:\n        /* \"#utility.yul\":8466:8474   */\n      dup2\n        /* \"#utility.yul\":8462:8506   */\n      add\n        /* \"#utility.yul\":8659:8661   */\n      0x20\n        /* \"#utility.yul\":8647:8657   */\n      dup6\n        /* \"#utility.yul\":8644:8662   */\n      lt\n        /* \"#utility.yul\":8641:8690   */\n      iszero\n      tag_161\n      jumpi\n        /* \"#utility.yul\":8680:8688   */\n      dup2\n        /* \"#utility.yul\":8665:8688   */\n      swap1\n      pop\n        /* \"#utility.yul\":8641:8690   */\n    tag_161:\n        /* \"#utility.yul\":8703:8783   */\n      tag_162\n        /* \"#utility.yul\":8759:8781   */\n      tag_163\n        /* \"#utility.yul\":8777:8780   */\n      dup6\n        /* \"#utility.yul\":8759:8781   */\n      tag_49\n      jump\t// in\n    tag_163:\n        /* \"#utility.yul\":8749:8757   */\n      dup4\n        /* \"#utility.yul\":8745:8782   */\n      add\n        /* \"#utility.yul\":8732:8743   */\n      dup3\n        /* \"#utility.yul\":8703:8783   */\n      tag_59\n      jump\t// in\n    tag_162:\n        /* \"#utility.yul\":8362:8793   */\n      pop\n      pop\n        /* \"#utility.yul\":8347:8793   */\n    tag_158:\n        /* \"#utility.yul\":8257:8800   */\n      pop\n      pop\n      pop\n      jump\t// out\n        /* \"#utility.yul\":8806:8923   */\n    tag_61:\n        /* \"#utility.yul\":8860:8868   */\n      0x00\n        /* \"#utility.yul\":8910:8915   */\n      dup3\n        /* \"#utility.yul\":8904:8908   */\n      dup3\n        /* \"#utility.yul\":8900:8916   */\n      shr\n        /* \"#utility.yul\":8879:8916   */\n      swap1\n      pop\n        /* \"#utility.yul\":8806:8923   */\n      swap3\n      swap2\n      pop\n      pop\n      jump\t// out\n        /* \"#utility.yul\":8929:9098   */\n    tag_62:\n        /* \"#utility.yul\":8973:8979   */\n      0x00\n        /* \"#utility.yul\":9006:9057   */\n      tag_166\n        /* \"#utility.yul\":9054:9055   */\n      0x00\n        /* \"#utility.yul\":9050:9056   */\n      not\n        /* \"#utility.yul\":9042:9047   */\n      dup5\n        /* \"#utility.yul\":9039:9040   */\n      0x08\n        /* \"#utility.yul\":9035:9048   */\n      mul\n        /* \"#utility.yul\":9006:9057   */\n      tag_61\n      jump\t// in\n    tag_166:\n        /* \"#utility.yul\":9002:9058   */\n      not\n        /* \"#utility.yul\":9087:9091   */\n      dup1\n        /* \"#utility.yul\":9081:9085   */\n      dup4\n        /* \"#utility.yul\":9077:9092   */\n      and\n        /* \"#utility.yul\":9067:9092   */\n      swap2\n      pop\n        /* \"#utility.yul\":8980:9098   */\n      pop\n        /* \"#utility.yul\":8929:9098   */\n      swap3\n      swap2\n      pop\n      pop\n      jump\t// out\n        /* \"#utility.yul\":9103:9398   */\n    tag_63:\n        /* \"#utility.yul\":9179:9183   */\n      0x00\n        /* \"#utility.yul\":9325:9354   */\n      tag_168\n        /* \"#utility.yul\":9350:9353   */\n      dup4\n        /* \"#utility.yul\":9344:9348   */\n      dup4\n        /* \"#utility.yul\":9325:9354   */\n      tag_62\n      jump\t// in\n    tag_168:\n        /* \"#utility.yul\":9317:9354   */\n      swap2\n      pop\n        /* \"#utility.yul\":9387:9390   */\n      dup3\n        /* \"#utility.yul\":9384:9385   */\n      0x02\n        /* \"#utility.yul\":9380:9391   */\n      mul\n        /* \"#utility.yul\":9374:9378   */\n      dup3\n        /* \"#utility.yul\":9371:9392   */\n      or\n        /* \"#utility.yul\":9363:9392   */\n      swap1\n      pop\n        /* \"#utility.yul\":9103:9398   */\n      swap3\n      swap2\n      pop\n      pop\n      jump\t// out\n        /* \"#utility.yul\":9403:10798   */\n    tag_27:\n        /* \"#utility.yul\":9520:9557   */\n      tag_170\n        /* \"#utility.yul\":9553:9556   */\n      dup3\n        /* \"#utility.yul\":9520:9557   */\n      tag_41\n      jump\t// in\n    tag_170:\n        /* \"#utility.yul\":9622:9640   */\n      0xffffffffffffffff\n        /* \"#utility.yul\":9614:9620   */\n      dup2\n        /* \"#utility.yul\":9611:9641   */\n      gt\n        /* \"#utility.yul\":9608:9664   */\n      iszero\n      tag_171\n      jumpi\n        /* \"#utility.yul\":9644:9662   */\n      tag_172\n      tag_34\n      jump\t// in\n    tag_172:\n        /* \"#utility.yul\":9608:9664   */\n    tag_171:\n        /* \"#utility.yul\":9688:9726   */\n      tag_173\n        /* \"#utility.yul\":9720:9724   */\n      dup3\n        /* \"#utility.yul\":9714:9725   */\n      sload\n        /* \"#utility.yul\":9688:9726   */\n      tag_19\n      jump\t// in\n    tag_173:\n        /* \"#utility.yul\":9773:9840   */\n      tag_174\n        /* \"#utility.yul\":9833:9839   */\n      dup3\n        /* \"#utility.yul\":9825:9831   */\n      dup3\n        /* \"#utility.yul\":9819:9823   */\n      dup6\n        /* \"#utility.yul\":9773:9840   */\n      tag_60\n      jump\t// in\n    tag_174:\n        /* \"#utility.yul\":9867:9868   */\n      0x00\n        /* \"#utility.yul\":9891:9895   */\n      0x20\n        /* \"#utility.yul\":9878:9895   */\n      swap1\n      pop\n        /* \"#utility.yul\":9923:9925   */\n      0x1f\n        /* \"#utility.yul\":9915:9921   */\n      dup4\n        /* \"#utility.yul\":9912:9926   */\n      gt\n        /* \"#utility.yul\":9940:9941   */\n      0x01\n        /* \"#utility.yul\":9935:10553   */\n      dup2\n      eq\n      tag_176\n      jumpi\n        /* \"#utility.yul\":10597:10598   */\n      0x00\n        /* \"#utility.yul\":10614:10620   */\n      dup5\n        /* \"#utility.yul\":10611:10688   */\n      iszero\n      tag_177\n      jumpi\n        /* \"#utility.yul\":10663:10672   */\n      dup3\n        /* \"#utility.yul\":10658:10661   */\n      dup8\n        /* \"#utility.yul\":10654:10673   */\n      add\n        /* \"#utility.yul\":10648:10674   */\n      mload\n        /* \"#utility.yul\":10639:10674   */\n      swap1\n      pop\n        /* \"#utility.yul\":10611:10688   */\n    tag_177:\n        /* \"#utility.yul\":10714:10781   */\n      tag_178\n        /* \"#utility.yul\":10774:10780   */\n      dup6\n        /* \"#utility.yul\":10767:10772   */\n      dup3\n        /* \"#utility.yul\":10714:10781   */\n      tag_63\n      jump\t// in\n    tag_178:\n        /* \"#utility.yul\":10708:10712   */\n      dup7\n        /* \"#utility.yul\":10701:10782   */\n      sstore\n        /* \"#utility.yul\":10570:10792   */\n      pop\n        /* \"#utility.yul\":9905:10792   */\n      jump(tag_175)\n        /* \"#utility.yul\":9935:10553   */\n    tag_176:\n        /* \"#utility.yul\":9987:9991   */\n      0x1f\n        /* \"#utility.yul\":9983:9992   */\n      not\n        /* \"#utility.yul\":9975:9981   */\n      dup5\n        /* \"#utility.yul\":9971:9993   */\n      and\n        /* \"#utility.yul\":10021:10058   */\n      tag_179\n        /* \"#utility.yul\":10053:10057   */\n      dup7\n        /* \"#utility.yul\":10021:10058   */\n      tag_48\n      jump\t// in\n    tag_179:\n        /* \"#utility.yul\":10080:10081   */\n      0x00\n        /* \"#utility.yul\":10094:10302   */\n    tag_180:\n        /* \"#utility.yul\":10108:10115   */\n      dup3\n        /* \"#utility.yul\":10105:10106   */\n      dup2\n        /* \"#utility.yul\":10102:10116   */\n      lt\n        /* \"#utility.yul\":10094:10302   */\n      iszero\n      tag_182\n      jumpi\n        /* \"#utility.yul\":10187:10196   */\n      dup5\n        /* \"#utility.yul\":10182:10185   */\n      dup10\n        /* \"#utility.yul\":10178:10197   */\n      add\n        /* \"#utility.yul\":10172:10198   */\n      mload\n        /* \"#utility.yul\":10164:10170   */\n      dup3\n        /* \"#utility.yul\":10157:10199   */\n      sstore\n        /* \"#utility.yul\":10238:10239   */\n      0x01\n        /* \"#utility.yul\":10230:10236   */\n      dup3\n        /* \"#utility.yul\":10226:10240   */\n      add\n        /* \"#utility.yul\":10216:10240   */\n      swap2\n      pop\n        /* \"#utility.yul\":10285:10287   */\n      0x20\n        /* \"#utility.yul\":10274:10283   */\n      dup6\n        /* \"#utility.yul\":10270:10288   */\n      add\n        /* \"#utility.yul\":10257:10288   */\n      swap5\n      pop\n        /* \"#utility.yul\":10131:10135   */\n      0x20\n        /* \"#utility.yul\":10128:10129   */\n      dup2\n        /* \"#utility.yul\":10124:10136   */\n      add\n        /* \"#utility.yul\":10119:10136   */\n      swap1\n      pop\n        /* \"#utility.yul\":10094:10302   */\n      jump(tag_180)\n    tag_182:\n        /* \"#utility.yul\":10330:10336   */\n      dup7\n        /* \"#utility.yul\":10321:10328   */\n      dup4\n        /* \"#utility.yul\":10318:10337   */\n      lt\n        /* \"#utility.yul\":10315:10494   */\n      iszero\n      tag_183\n      jumpi\n        /* \"#utility.yul\":10388:10397   */\n      dup5\n        /* \"#utility.yul\":10383:10386   */\n      dup10\n        /* \"#utility.yul\":10379:10398   */\n      add\n        /* \"#utility.yul\":10373:10399   */\n      mload\n        /* \"#utility.yul\":10431:10479   */\n      tag_184\n        /* \"#utility.yul\":10473:10477   */\n      0x1f\n        /* \"#utility.yul\":10465:10471   */\n      dup10\n        /* \"#utility.yul\":10461:10478   */\n      and\n        /* \"#utility.yul\":10450:10459   */\n      dup3\n        /* \"#utility.yul\":10431:10479   */\n      tag_62\n      jump\t// in\n    tag_184:\n        /* \"#utility.yul\":10423:10429   */\n      dup4\n        /* \"#utility.yul\":10416:10480   */\n      sstore\n        /* \"#utility.yul\":10338:10494   */\n      pop\n        /* \"#utility.yul\":10315:10494   */\n    tag_183:\n        /* \"#utility.yul\":10540:10541   */\n      0x01\n        /* \"#utility.yul\":10536:10537   */\n      0x02\n        /* \"#utility.yul\":10528:10534   */\n      dup9\n        /* \"#utility.yul\":10524:10538   */\n      mul\n        /* \"#utility.yul\":10520:10542   */\n      add\n        /* \"#utility.yul\":10514:10518   */\n      dup9\n        /* \"#utility.yul\":10507:10543   */\n      sstore\n        /* \"#utility.yul\":9942:10553   */\n      pop\n      pop\n      pop\n        /* \"#utility.yul\":9905:10792   */\n    tag_175:\n      pop\n        /* \"#utility.yul\":9495:10798   */\n      pop\n      pop\n      pop\n        /* \"#utility.yul\":9403:10798   */\n      pop\n      pop\n      jump\t// out\n\n    auxdata: 0xa26469706673582212200479d7fcb4e39a195109349c6cd9df4fdeb7d2747e423a9efc2b099bd661f85664736f6c634300081e0033\n}\n",
				"bytecode": {
					"linkReferences": {},
					"object": "6080604052348015600e575f5ffd5b506107458061001c5f395ff3fe608060405234801561000f575f5ffd5b5060043610610034575f3560e01c80635b6beeb9146100385780636f28ee0914610068575b5f5ffd5b610052600480360381019061004d91906102ad565b610084565b60405161005f9190610354565b60405180910390f35b610082600480360381019061007d9190610374565b610131565b005b60605f826040516100959190610424565b908152602001604051809103902080546100ae90610467565b80601f01602080910402602001604051908101604052809291908181526020018280546100da90610467565b80156101255780601f106100fc57610100808354040283529160200191610125565b820191905f5260205f20905b81548152906001019060200180831161010857829003601f168201915b50505050509050919050565b805f836040516101419190610424565b9081526020016040518091039020908161015b9190610640565b505050565b5f604051905090565b5f5ffd5b5f5ffd5b5f5ffd5b5f5ffd5b5f601f19601f8301169050919050565b7f4e487b71000000000000000000000000000000000000000000000000000000005f52604160045260245ffd5b6101bf82610179565b810181811067ffffffffffffffff821117156101de576101dd610189565b5b80604052505050565b5f6101f0610160565b90506101fc82826101b6565b919050565b5f67ffffffffffffffff82111561021b5761021a610189565b5b61022482610179565b9050602081019050919050565b828183375f83830152505050565b5f61025161024c84610201565b6101e7565b90508281526020810184848401111561026d5761026c610175565b5b610278848285610231565b509392505050565b5f82601f83011261029457610293610171565b5b81356102a484826020860161023f565b91505092915050565b5f602082840312156102c2576102c1610169565b5b5f82013567ffffffffffffffff8111156102df576102de61016d565b5b6102eb84828501610280565b91505092915050565b5f81519050919050565b5f82825260208201905092915050565b8281835e5f83830152505050565b5f610326826102f4565b61033081856102fe565b935061034081856020860161030e565b61034981610179565b840191505092915050565b5f6020820190508181035f83015261036c818461031c565b905092915050565b5f5f6040838503121561038a57610389610169565b5b5f83013567ffffffffffffffff8111156103a7576103a661016d565b5b6103b385828601610280565b925050602083013567ffffffffffffffff8111156103d4576103d361016d565b5b6103e085828601610280565b9150509250929050565b5f81905092915050565b5f6103fe826102f4565b61040881856103ea565b935061041881856020860161030e565b80840191505092915050565b5f61042f82846103f4565b915081905092915050565b7f4e487b71000000000000000000000000000000000000000000000000000000005f52602260045260245ffd5b5f600282049050600182168061047e57607f821691505b6020821081036104915761049061043a565b5b50919050565b5f819050815f5260205f209050919050565b5f6020601f8301049050919050565b5f82821b905092915050565b5f600883026104f37fffffffffffffffffffffffffffffffffffffffffffffffffffffffffffffffff826104b8565b6104fd86836104b8565b95508019841693508086168417925050509392505050565b5f819050919050565b5f819050919050565b5f61054161053c61053784610515565b61051e565b610515565b9050919050565b5f819050919050565b61055a83610527565b61056e61056682610548565b8484546104c4565b825550505050565b5f5f905090565b610585610576565b610590818484610551565b505050565b5b818110156105b3576105a85f8261057d565b600181019050610596565b5050565b601f8211156105f8576105c981610497565b6105d2846104a9565b810160208510156105e1578190505b6105f56105ed856104a9565b830182610595565b50505b505050565b5f82821c905092915050565b5f6106185f19846008026105fd565b1980831691505092915050565b5f6106308383610609565b9150826002028217905092915050565b610649826102f4565b67ffffffffffffffff81111561066257610661610189565b5b61066c8254610467565b6106778282856105b7565b5f60209050601f8311600181146106a8575f8415610696578287015190505b6106a08582610625565b865550610707565b601f1984166106b686610497565b5f5b828110156106dd578489015182556001820191506020850194506020810190506106b8565b868310156106fa57848901516106f6601f891682610609565b8355505b6001600288020188555050505b50505050505056fea26469706673582212200479d7fcb4e39a195109349c6cd9df4fdeb7d2747e423a9efc2b099bd661f85664736f6c634300081e0033",
					"opcodes": "PUSH1 0x80 PUSH1 0x40 MSTORE CALLVALUE DUP1 ISZERO PUSH1 0xE JUMPI PUSH0 PUSH0 REVERT JUMPDEST POP PUSH2 0x745 DUP1 PUSH2 0x1C PUSH0 CODECOPY PUSH0 RETURN INVALID PUSH1 0x80 PUSH1 0x40 MSTORE CALLVALUE DUP1 ISZERO PUSH2 0xF JUMPI PUSH0 PUSH0 REVERT JUMPDEST POP PUSH1 0x4 CALLDATASIZE LT PUSH2 0x34 JUMPI PUSH0 CALLDATALOAD PUSH1 0xE0 SHR DUP1 PUSH4 0x5B6BEEB9 EQ PUSH2 0x38 JUMPI DUP1 PUSH4 0x6F28EE09 EQ PUSH2 0x68 JUMPI JUMPDEST PUSH0 PUSH0 REVERT JUMPDEST PUSH2 0x52 PUSH1 0x4 DUP1 CALLDATASIZE SUB DUP2 ADD SWAP1 PUSH2 0x4D SWAP2 SWAP1 PUSH2 0x2AD JUMP JUMPDEST PUSH2 0x84 JUMP JUMPDEST PUSH1 0x40 MLOAD PUSH2 0x5F SWAP2 SWAP1 PUSH2 0x354 JUMP JUMPDEST PUSH1 0x40 MLOAD DUP1 SWAP2 SUB SWAP1 RETURN JUMPDEST PUSH2 0x82 PUSH1 0x4 DUP1 CALLDATASIZE SUB DUP2 ADD SWAP1 PUSH2 0x7D SWAP2 SWAP1 PUSH2 0x374 JUMP JUMPDEST PUSH2 0x131 JUMP JUMPDEST STOP JUMPDEST PUSH1 0x60 PUSH0 DUP3 PUSH1 0x40 MLOAD PUSH2 0x95 SWAP2 SWAP1 PUSH2 0x424 JUMP JUMPDEST SWAP1 DUP2 MSTORE PUSH1 0x20 ADD PUSH1 0x40 MLOAD DUP1 SWAP2 SUB SWAP1 KECCAK256 DUP1 SLOAD PUSH2 0xAE SWAP1 PUSH2 0x467 JUMP JUMPDEST DUP1 PUSH1 0x1F ADD PUSH1 0x20 DUP1 SWAP2 DIV MUL PUSH1 0x20 ADD PUSH1 0x40 MLOAD SWAP1 DUP2 ADD PUSH1 0x40 MSTORE DUP1 SWAP3 SWAP2 SWAP1 DUP2 DUP2 MSTORE PUSH1 0x20 ADD DUP3 DUP1 SLOAD PUSH2 0xDA SWAP1 PUSH2 0x467 JUMP JUMPDEST DUP1 ISZERO PUSH2 0x125 JUMPI DUP1 PUSH1 0x1F LT PUSH2 0xFC JUMPI PUSH2 0x100 DUP1 DUP4 SLOAD DIV MUL DUP4 MSTORE SWAP2 PUSH1 0x20 ADD SWAP2 PUSH2 0x125 JUMP JUMPDEST DUP3 ADD SWAP2 SWAP1 PUSH0 MSTORE PUSH1 0x20 PUSH0 KECCAK256 SWAP1 JUMPDEST DUP2 SLOAD DUP2 MSTORE SWAP1 PUSH1 0x1 ADD SWAP1 PUSH1 0x20 ADD DUP1 DUP4 GT PUSH2 0x108 JUMPI DUP3 SWAP1 SUB PUSH1 0x1F AND DUP3 ADD SWAP2 JUMPDEST POP POP POP POP POP SWAP1 POP SWAP2 SWAP1 POP JUMP JUMPDEST DUP1 PUSH0 DUP4 PUSH1 0x40 MLOAD PUSH2 0x141 SWAP2 SWAP1 PUSH2 0x424 JUMP JUMPDEST SWAP1 DUP2 MSTORE PUSH1 0x20 ADD PUSH1 0x40 MLOAD DUP1 SWAP2 SUB SWAP1 KECCAK256 SWAP1 DUP2 PUSH2 0x15B SWAP2 SWAP1 PUSH2 0x640 JUMP JUMPDEST POP POP POP JUMP JUMPDEST PUSH0 PUSH1 0x40 MLOAD SWAP1 POP SWAP1 JUMP JUMPDEST PUSH0 PUSH0 REVERT JUMPDEST PUSH0 PUSH0 REVERT JUMPDEST PUSH0 PUSH0 REVERT JUMPDEST PUSH0 PUSH0 REVERT JUMPDEST PUSH0 PUSH1 0x1F NOT PUSH1 0x1F DUP4 ADD AND SWAP1 POP SWAP2 SWAP1 POP JUMP JUMPDEST PUSH32 0x4E487B7100000000000000000000000000000000000000000000000000000000 PUSH0 MSTORE PUSH1 0x41 PUSH1 0x4 MSTORE PUSH1 0x24 PUSH0 REVERT JUMPDEST PUSH2 0x1BF DUP3 PUSH2 0x179 JUMP JUMPDEST DUP2 ADD DUP2 DUP2 LT PUSH8 0xFFFFFFFFFFFFFFFF DUP3 GT OR ISZERO PUSH2 0x1DE JUMPI PUSH2 0x1DD PUSH2 0x189 JUMP JUMPDEST JUMPDEST DUP1 PUSH1 0x40 MSTORE POP POP POP JUMP JUMPDEST PUSH0 PUSH2 0x1F0 PUSH2 0x160 JUMP JUMPDEST SWAP1 POP PUSH2 0x1FC DUP3 DUP3 PUSH2 0x1B6 JUMP JUMPDEST SWAP2 SWAP1 POP JUMP JUMPDEST PUSH0 PUSH8 0xFFFFFFFFFFFFFFFF DUP3 GT ISZERO PUSH2 0x21B JUMPI PUSH2 0x21A PUSH2 0x189 JUMP JUMPDEST JUMPDEST PUSH2 0x224 DUP3 PUSH2 0x179 JUMP JUMPDEST SWAP1 POP PUSH1 0x20 DUP2 ADD SWAP1 POP SWAP2 SWAP1 POP JUMP JUMPDEST DUP3 DUP2 DUP4 CALLDATACOPY PUSH0 DUP4 DUP4 ADD MSTORE POP POP POP JUMP JUMPDEST PUSH0 PUSH2 0x251 PUSH2 0x24C DUP5 PUSH2 0x201 JUMP JUMPDEST PUSH2 0x1E7 JUMP JUMPDEST SWAP1 POP DUP3 DUP2 MSTORE PUSH1 0x20 DUP2 ADD DUP5 DUP5 DUP5 ADD GT ISZERO PUSH2 0x26D JUMPI PUSH2 0x26C PUSH2 0x175 JUMP JUMPDEST JUMPDEST PUSH2 0x278 DUP5 DUP3 DUP6 PUSH2 0x231 JUMP JUMPDEST POP SWAP4 SWAP3 POP POP POP JUMP JUMPDEST PUSH0 DUP3 PUSH1 0x1F DUP4 ADD SLT PUSH2 0x294 JUMPI PUSH2 0x293 PUSH2 0x171 JUMP JUMPDEST JUMPDEST DUP2 CALLDATALOAD PUSH2 0x2A4 DUP5 DUP3 PUSH1 0x20 DUP7 ADD PUSH2 0x23F JUMP JUMPDEST SWAP2 POP POP SWAP3 SWAP2 POP POP JUMP JUMPDEST PUSH0 PUSH1 0x20 DUP3 DUP5 SUB SLT ISZERO PUSH2 0x2C2 JUMPI PUSH2 0x2C1 PUSH2 0x169 JUMP JUMPDEST JUMPDEST PUSH0 DUP3 ADD CALLDATALOAD PUSH8 0xFFFFFFFFFFFFFFFF DUP2 GT ISZERO PUSH2 0x2DF JUMPI PUSH2 0x2DE PUSH2 0x16D JUMP JUMPDEST JUMPDEST PUSH2 0x2EB DUP5 DUP3 DUP6 ADD PUSH2 0x280 JUMP JUMPDEST SWAP2 POP POP SWAP3 SWAP2 POP POP JUMP JUMPDEST PUSH0 DUP2 MLOAD SWAP1 POP SWAP2 SWAP1 POP JUMP JUMPDEST PUSH0 DUP3 DUP3 MSTORE PUSH1 0x20 DUP3 ADD SWAP1 POP SWAP3 SWAP2 POP POP JUMP JUMPDEST DUP3 DUP2 DUP4 MCOPY PUSH0 DUP4 DUP4 ADD MSTORE POP POP POP JUMP JUMPDEST PUSH0 PUSH2 0x326 DUP3 PUSH2 0x2F4 JUMP JUMPDEST PUSH2 0x330 DUP2 DUP6 PUSH2 0x2FE JUMP JUMPDEST SWAP4 POP PUSH2 0x340 DUP2 DUP6 PUSH1 0x20 DUP7 ADD PUSH2 0x30E JUMP JUMPDEST PUSH2 0x349 DUP2 PUSH2 0x179 JUMP JUMPDEST DUP5 ADD SWAP2 POP POP SWAP3 SWAP2 POP POP JUMP JUMPDEST PUSH0 PUSH1 0x20 DUP3 ADD SWAP1 POP DUP2 DUP2 SUB PUSH0 DUP4 ADD MSTORE PUSH2 0x36C DUP2 DUP5 PUSH2 0x31C JUMP JUMPDEST SWAP1 POP SWAP3 SWAP2 POP POP JUMP JUMPDEST PUSH0 PUSH0 PUSH1 0x40 DUP4 DUP6 SUB SLT ISZERO PUSH2 0x38A JUMPI PUSH2 0x389 PUSH2 0x169 JUMP JUMPDEST JUMPDEST PUSH0 DUP4 ADD CALLDATALOAD PUSH8 0xFFFFFFFFFFFFFFFF DUP2 GT ISZERO PUSH2 0x3A7 JUMPI PUSH2 0x3A6 PUSH2 0x16D JUMP JUMPDEST JUMPDEST PUSH2 0x3B3 DUP6 DUP3 DUP7 ADD PUSH2 0x280 JUMP JUMPDEST SWAP3 POP POP PUSH1 0x20 DUP4 ADD CALLDATALOAD PUSH8 0xFFFFFFFFFFFFFFFF DUP2 GT ISZERO PUSH2 0x3D4 JUMPI PUSH2 0x3D3 PUSH2 0x16D JUMP JUMPDEST JUMPDEST PUSH2 0x3E0 DUP6 DUP3 DUP7 ADD PUSH2 0x280 JUMP JUMPDEST SWAP2 POP POP SWAP3 POP SWAP3 SWAP1 POP JUMP JUMPDEST PUSH0 DUP2 SWAP1 POP SWAP3 SWAP2 POP POP JUMP JUMPDEST PUSH0 PUSH2 0x3FE DUP3 PUSH2 0x2F4 JUMP JUMPDEST PUSH2 0x408 DUP2 DUP6 PUSH2 0x3EA JUMP JUMPDEST SWAP4 POP PUSH2 0x418 DUP2 DUP6 PUSH1 0x20 DUP7 ADD PUSH2 0x30E JUMP JUMPDEST DUP1 DUP5 ADD SWAP2 POP POP SWAP3 SWAP2 POP POP JUMP JUMPDEST PUSH0 PUSH2 0x42F DUP3 DUP5 PUSH2 0x3F4 JUMP JUMPDEST SWAP2 POP DUP2 SWAP1 POP SWAP3 SWAP2 POP POP JUMP JUMPDEST PUSH32 0x4E487B7100000000000000000000000000000000000000000000000000000000 PUSH0 MSTORE PUSH1 0x22 PUSH1 0x4 MSTORE PUSH1 0x24 PUSH0 REVERT JUMPDEST PUSH0 PUSH1 0x2 DUP3 DIV SWAP1 POP PUSH1 0x1 DUP3 AND DUP1 PUSH2 0x47E JUMPI PUSH1 0x7F DUP3 AND SWAP2 POP JUMPDEST PUSH1 0x20 DUP3 LT DUP2 SUB PUSH2 0x491 JUMPI PUSH2 0x490 PUSH2 0x43A JUMP JUMPDEST JUMPDEST POP SWAP2 SWAP1 POP JUMP JUMPDEST PUSH0 DUP2 SWAP1 POP DUP2 PUSH0 MSTORE PUSH1 0x20 PUSH0 KECCAK256 SWAP1 POP SWAP2 SWAP1 POP JUMP JUMPDEST PUSH0 PUSH1 0x20 PUSH1 0x1F DUP4 ADD DIV SWAP1 POP SWAP2 SWAP1 POP JUMP JUMPDEST PUSH0 DUP3 DUP3 SHL SWAP1 POP SWAP3 SWAP2 POP POP JUMP JUMPDEST PUSH0 PUSH1 0x8 DUP4 MUL PUSH2 0x4F3 PUSH32 0xFFFFFFFFFFFFFFFFFFFFFFFFFFFFFFFFFFFFFFFFFFFFFFFFFFFFFFFFFFFFFFFF DUP3 PUSH2 0x4B8 JUMP JUMPDEST PUSH2 0x4FD DUP7 DUP4 PUSH2 0x4B8 JUMP JUMPDEST SWAP6 POP DUP1 NOT DUP5 AND SWAP4 POP DUP1 DUP7 AND DUP5 OR SWAP3 POP POP POP SWAP4 SWAP3 POP POP POP JUMP JUMPDEST PUSH0 DUP2 SWAP1 POP SWAP2 SWAP1 POP JUMP JUMPDEST PUSH0 DUP2 SWAP1 POP SWAP2 SWAP1 POP JUMP JUMPDEST PUSH0 PUSH2 0x541 PUSH2 0x53C PUSH2 0x537 DUP5 PUSH2 0x515 JUMP JUMPDEST PUSH2 0x51E JUMP JUMPDEST PUSH2 0x515 JUMP JUMPDEST SWAP1 POP SWAP2 SWAP1 POP JUMP JUMPDEST PUSH0 DUP2 SWAP1 POP SWAP2 SWAP1 POP JUMP JUMPDEST PUSH2 0x55A DUP4 PUSH2 0x527 JUMP JUMPDEST PUSH2 0x56E PUSH2 0x566 DUP3 PUSH2 0x548 JUMP JUMPDEST DUP5 DUP5 SLOAD PUSH2 0x4C4 JUMP JUMPDEST DUP3 SSTORE POP POP POP POP JUMP JUMPDEST PUSH0 PUSH0 SWAP1 POP SWAP1 JUMP JUMPDEST PUSH2 0x585 PUSH2 0x576 JUMP JUMPDEST PUSH2 0x590 DUP2 DUP5 DUP5 PUSH2 0x551 JUMP JUMPDEST POP POP POP JUMP JUMPDEST JUMPDEST DUP2 DUP2 LT ISZERO PUSH2 0x5B3 JUMPI PUSH2 0x5A8 PUSH0 DUP3 PUSH2 0x57D JUMP JUMPDEST PUSH1 0x1 DUP2 ADD SWAP1 POP PUSH2 0x596 JUMP JUMPDEST POP POP JUMP JUMPDEST PUSH1 0x1F DUP3 GT ISZERO PUSH2 0x5F8 JUMPI PUSH2 0x5C9 DUP2 PUSH2 0x497 JUMP JUMPDEST PUSH2 0x5D2 DUP5 PUSH2 0x4A9 JUMP JUMPDEST DUP2 ADD PUSH1 0x20 DUP6 LT ISZERO PUSH2 0x5E1 JUMPI DUP2 SWAP1 POP JUMPDEST PUSH2 0x5F5 PUSH2 0x5ED DUP6 PUSH2 0x4A9 JUMP JUMPDEST DUP4 ADD DUP3 PUSH2 0x595 JUMP JUMPDEST POP POP JUMPDEST POP POP POP JUMP JUMPDEST PUSH0 DUP3 DUP3 SHR SWAP1 POP SWAP3 SWAP2 POP POP JUMP JUMPDEST PUSH0 PUSH2 0x618 PUSH0 NOT DUP5 PUSH1 0x8 MUL PUSH2 0x5FD JUMP JUMPDEST NOT DUP1 DUP4 AND SWAP2 POP POP SWAP3 SWAP2 POP POP JUMP JUMPDEST PUSH0 PUSH2 0x630 DUP4 DUP4 PUSH2 0x609 JUMP JUMPDEST SWAP2 POP DUP3 PUSH1 0x2 MUL DUP3 OR SWAP1 POP SWAP3 SWAP2 POP POP JUMP JUMPDEST PUSH2 0x649 DUP3 PUSH2 0x2F4 JUMP JUMPDEST PUSH8 0xFFFFFFFFFFFFFFFF DUP2 GT ISZERO PUSH2 0x662 JUMPI PUSH2 0x661 PUSH2 0x189 JUMP JUMPDEST JUMPDEST PUSH2 0x66C DUP3 SLOAD PUSH2 0x467 JUMP JUMPDEST PUSH2 0x677 DUP3 DUP3 DUP6 PUSH2 0x5B7 JUMP JUMPDEST PUSH0 PUSH1 0x20 SWAP1 POP PUSH1 0x1F DUP4 GT PUSH1 0x1 DUP2 EQ PUSH2 0x6A8 JUMPI PUSH0 DUP5 ISZERO PUSH2 0x696 JUMPI DUP3 DUP8 ADD MLOAD SWAP1 POP JUMPDEST PUSH2 0x6A0 DUP6 DUP3 PUSH2 0x625 JUMP JUMPDEST DUP7 SSTORE POP PUSH2 0x707 JUMP JUMPDEST PUSH1 0x1F NOT DUP5 AND PUSH2 0x6B6 DUP7 PUSH2 0x497 JUMP JUMPDEST PUSH0 JUMPDEST DUP3 DUP2 LT ISZERO PUSH2 0x6DD JUMPI DUP5 DUP10 ADD MLOAD DUP3 SSTORE PUSH1 0x1 DUP3 ADD SWAP2 POP PUSH1 0x20 DUP6 ADD SWAP5 POP PUSH1 0x20 DUP2 ADD SWAP1 POP PUSH2 0x6B8 JUMP JUMPDEST DUP7 DUP4 LT ISZERO PUSH2 0x6FA JUMPI DUP5 DUP10 ADD MLOAD PUSH2 0x6F6 PUSH1 0x1F DUP10 AND DUP3 PUSH2 0x609 JUMP JUMPDEST DUP4 SSTORE POP JUMPDEST PUSH1 0x1 PUSH1 0x2 DUP9 MUL ADD DUP9 SSTORE POP POP POP JUMPDEST POP POP POP POP POP POP JUMP INVALID LOG2 PUSH5 0x6970667358 0x22 SLT KECCAK256 DIV PUSH26 0xD7FCB4E39A195109349C6CD9DF4FDEB7D2747E423A9EFC2B099B 0xD6 PUSH2 0xF856 PUSH5 0x736F6C6343 STOP ADDMOD 0x1E STOP CALLER "
				},
				"gasEstimates": {
					"creation": {
						"codeDepositCost": "372200",
						"executionCost": "409",
						"totalCost": "372609"
					},
					"external": {
						"getHash(string)": "infinite",
						"storeHash(string,string)": "infinite"
					}
				},
				"methodIdentifiers": {
					"getHash(string)": "5b6beeb9",
					"storeHash(string,string)": "6f28ee09"
				}
			},
			"storageLayout": {
				"storage": [
					{
						"astId": 5,
						"contract": "DeathRegistry.sol:DeathRegistry",
						"label": "records",
						"offset": 0,
						"slot": "0",
						"type": "t_mapping(t_string_memory_ptr,t_string_storage)"
					}
				],
				"types": {
					"t_mapping(t_string_memory_ptr,t_string_storage)": {
						"encoding": "mapping",
						"key": "t_string_memory_ptr",
						"label": "mapping(string => string)",
						"numberOfBytes": "32",
						"value": "t_string_storage"
					},
					"t_string_memory_ptr": {
						"encoding": "bytes",
						"label": "string",
						"numberOfBytes": "32"
					},
					"t_string_storage": {
						"encoding": "bytes",
						"label": "string",
						"numberOfBytes": "32"
					}
				}
			},
			"userdoc": {
				"kind": "user",
				"methods": {},
				"version": 1
			}
		}
	}
}